{
  "_format": "hh-sol-artifact-1",
  "contractName": "NFT",
  "sourceName": "contracts/NFT.sol",
  "abi": [
    {
      "inputs": [
        {
          "internalType": "string",
          "name": "_name",
          "type": "string"
        },
        {
          "internalType": "string",
          "name": "_symbol",
          "type": "string"
        },
        {
          "internalType": "uint256",
          "name": "_cost",
          "type": "uint256"
        }
      ],
      "stateMutability": "nonpayable",
      "type": "constructor"
    },
    {
      "inputs": [
        {
          "internalType": "address",
          "name": "sender",
          "type": "address"
        },
        {
          "internalType": "uint256",
          "name": "tokenId",
          "type": "uint256"
        },
        {
          "internalType": "address",
          "name": "owner",
          "type": "address"
        }
      ],
      "name": "ERC721IncorrectOwner",
      "type": "error"
    },
    {
      "inputs": [
        {
          "internalType": "address",
          "name": "operator",
          "type": "address"
        },
        {
          "internalType": "uint256",
          "name": "tokenId",
          "type": "uint256"
        }
      ],
      "name": "ERC721InsufficientApproval",
      "type": "error"
    },
    {
      "inputs": [
        {
          "internalType": "address",
          "name": "approver",
          "type": "address"
        }
      ],
      "name": "ERC721InvalidApprover",
      "type": "error"
    },
    {
      "inputs": [
        {
          "internalType": "address",
          "name": "operator",
          "type": "address"
        }
      ],
      "name": "ERC721InvalidOperator",
      "type": "error"
    },
    {
      "inputs": [
        {
          "internalType": "address",
          "name": "owner",
          "type": "address"
        }
      ],
      "name": "ERC721InvalidOwner",
      "type": "error"
    },
    {
      "inputs": [
        {
          "internalType": "address",
          "name": "receiver",
          "type": "address"
        }
      ],
      "name": "ERC721InvalidReceiver",
      "type": "error"
    },
    {
      "inputs": [
        {
          "internalType": "address",
          "name": "sender",
          "type": "address"
        }
      ],
      "name": "ERC721InvalidSender",
      "type": "error"
    },
    {
      "inputs": [
        {
          "internalType": "uint256",
          "name": "tokenId",
          "type": "uint256"
        }
      ],
      "name": "ERC721NonexistentToken",
      "type": "error"
    },
    {
      "anonymous": false,
      "inputs": [
        {
          "indexed": true,
          "internalType": "address",
          "name": "owner",
          "type": "address"
        },
        {
          "indexed": true,
          "internalType": "address",
          "name": "approved",
          "type": "address"
        },
        {
          "indexed": true,
          "internalType": "uint256",
          "name": "tokenId",
          "type": "uint256"
        }
      ],
      "name": "Approval",
      "type": "event"
    },
    {
      "anonymous": false,
      "inputs": [
        {
          "indexed": true,
          "internalType": "address",
          "name": "owner",
          "type": "address"
        },
        {
          "indexed": true,
          "internalType": "address",
          "name": "operator",
          "type": "address"
        },
        {
          "indexed": false,
          "internalType": "bool",
          "name": "approved",
          "type": "bool"
        }
      ],
      "name": "ApprovalForAll",
      "type": "event"
    },
    {
      "anonymous": false,
      "inputs": [
        {
          "indexed": false,
          "internalType": "uint256",
          "name": "_fromTokenId",
          "type": "uint256"
        },
        {
          "indexed": false,
          "internalType": "uint256",
          "name": "_toTokenId",
          "type": "uint256"
        }
      ],
      "name": "BatchMetadataUpdate",
      "type": "event"
    },
    {
      "anonymous": false,
      "inputs": [
        {
          "indexed": false,
          "internalType": "uint256",
          "name": "_tokenId",
          "type": "uint256"
        }
      ],
      "name": "MetadataUpdate",
      "type": "event"
    },
    {
      "anonymous": false,
      "inputs": [
        {
          "indexed": true,
          "internalType": "address",
          "name": "from",
          "type": "address"
        },
        {
          "indexed": true,
          "internalType": "address",
          "name": "to",
          "type": "address"
        },
        {
          "indexed": true,
          "internalType": "uint256",
          "name": "tokenId",
          "type": "uint256"
        }
      ],
      "name": "Transfer",
      "type": "event"
    },
    {
      "inputs": [
        {
          "internalType": "address",
          "name": "to",
          "type": "address"
        },
        {
          "internalType": "uint256",
          "name": "tokenId",
          "type": "uint256"
        }
      ],
      "name": "approve",
      "outputs": [],
      "stateMutability": "nonpayable",
      "type": "function"
    },
    {
      "inputs": [
        {
          "internalType": "address",
          "name": "owner",
          "type": "address"
        }
      ],
      "name": "balanceOf",
      "outputs": [
        {
          "internalType": "uint256",
          "name": "",
          "type": "uint256"
        }
      ],
      "stateMutability": "view",
      "type": "function"
    },
    {
      "inputs": [],
      "name": "cost",
      "outputs": [
        {
          "internalType": "uint256",
          "name": "",
          "type": "uint256"
        }
      ],
      "stateMutability": "view",
      "type": "function"
    },
    {
      "inputs": [
        {
          "internalType": "uint256",
          "name": "tokenId",
          "type": "uint256"
        }
      ],
      "name": "getApproved",
      "outputs": [
        {
          "internalType": "address",
          "name": "",
          "type": "address"
        }
      ],
      "stateMutability": "view",
      "type": "function"
    },
    {
      "inputs": [
        {
          "internalType": "address",
          "name": "owner",
          "type": "address"
        },
        {
          "internalType": "address",
          "name": "operator",
          "type": "address"
        }
      ],
      "name": "isApprovedForAll",
      "outputs": [
        {
          "internalType": "bool",
          "name": "",
          "type": "bool"
        }
      ],
      "stateMutability": "view",
      "type": "function"
    },
    {
      "inputs": [
        {
          "internalType": "string",
          "name": "tokenURI",
          "type": "string"
        }
      ],
      "name": "mint",
      "outputs": [],
      "stateMutability": "payable",
      "type": "function"
    },
    {
      "inputs": [],
      "name": "name",
      "outputs": [
        {
          "internalType": "string",
          "name": "",
          "type": "string"
        }
      ],
      "stateMutability": "view",
      "type": "function"
    },
    {
      "inputs": [],
      "name": "owner",
      "outputs": [
        {
          "internalType": "address",
          "name": "",
          "type": "address"
        }
      ],
      "stateMutability": "view",
      "type": "function"
    },
    {
      "inputs": [
        {
          "internalType": "uint256",
          "name": "tokenId",
          "type": "uint256"
        }
      ],
      "name": "ownerOf",
      "outputs": [
        {
          "internalType": "address",
          "name": "",
          "type": "address"
        }
      ],
      "stateMutability": "view",
      "type": "function"
    },
    {
      "inputs": [
        {
          "internalType": "address",
          "name": "from",
          "type": "address"
        },
        {
          "internalType": "address",
          "name": "to",
          "type": "address"
        },
        {
          "internalType": "uint256",
          "name": "tokenId",
          "type": "uint256"
        }
      ],
      "name": "safeTransferFrom",
      "outputs": [],
      "stateMutability": "nonpayable",
      "type": "function"
    },
    {
      "inputs": [
        {
          "internalType": "address",
          "name": "from",
          "type": "address"
        },
        {
          "internalType": "address",
          "name": "to",
          "type": "address"
        },
        {
          "internalType": "uint256",
          "name": "tokenId",
          "type": "uint256"
        },
        {
          "internalType": "bytes",
          "name": "data",
          "type": "bytes"
        }
      ],
      "name": "safeTransferFrom",
      "outputs": [],
      "stateMutability": "nonpayable",
      "type": "function"
    },
    {
      "inputs": [
        {
          "internalType": "address",
          "name": "operator",
          "type": "address"
        },
        {
          "internalType": "bool",
          "name": "approved",
          "type": "bool"
        }
      ],
      "name": "setApprovalForAll",
      "outputs": [],
      "stateMutability": "nonpayable",
      "type": "function"
    },
    {
      "inputs": [
        {
          "internalType": "bytes4",
          "name": "interfaceId",
          "type": "bytes4"
        }
      ],
      "name": "supportsInterface",
      "outputs": [
        {
          "internalType": "bool",
          "name": "",
          "type": "bool"
        }
      ],
      "stateMutability": "view",
      "type": "function"
    },
    {
      "inputs": [],
      "name": "symbol",
      "outputs": [
        {
          "internalType": "string",
          "name": "",
          "type": "string"
        }
      ],
      "stateMutability": "view",
      "type": "function"
    },
    {
      "inputs": [
        {
          "internalType": "uint256",
          "name": "tokenId",
          "type": "uint256"
        }
      ],
      "name": "tokenURI",
      "outputs": [
        {
          "internalType": "string",
          "name": "",
          "type": "string"
        }
      ],
      "stateMutability": "view",
      "type": "function"
    },
    {
      "inputs": [],
      "name": "totalSupply",
      "outputs": [
        {
          "internalType": "uint256",
          "name": "",
          "type": "uint256"
        }
      ],
      "stateMutability": "view",
      "type": "function"
    },
    {
      "inputs": [
        {
          "internalType": "address",
          "name": "from",
          "type": "address"
        },
        {
          "internalType": "address",
          "name": "to",
          "type": "address"
        },
        {
          "internalType": "uint256",
          "name": "tokenId",
          "type": "uint256"
        }
      ],
      "name": "transferFrom",
      "outputs": [],
      "stateMutability": "nonpayable",
      "type": "function"
    },
    {
      "inputs": [],
      "name": "withdraw",
      "outputs": [],
      "stateMutability": "nonpayable",
      "type": "function"
    }
  ],
  "bytecode": "0x60806040523480156200001157600080fd5b5060405162002cb038038062002cb083398181016040528101906200003791906200027e565b828281600090816200004a919062000559565b5080600190816200005c919062000559565b50505033600860006101000a81548173ffffffffffffffffffffffffffffffffffffffff021916908373ffffffffffffffffffffffffffffffffffffffff1602179055508060098190555050505062000640565b6000604051905090565b600080fd5b600080fd5b600080fd5b600080fd5b6000601f19601f8301169050919050565b7f4e487b7100000000000000000000000000000000000000000000000000000000600052604160045260246000fd5b6200011982620000ce565b810181811067ffffffffffffffff821117156200013b576200013a620000df565b5b80604052505050565b600062000150620000b0565b90506200015e82826200010e565b919050565b600067ffffffffffffffff821115620001815762000180620000df565b5b6200018c82620000ce565b9050602081019050919050565b60005b83811015620001b95780820151818401526020810190506200019c565b60008484015250505050565b6000620001dc620001d68462000163565b62000144565b905082815260208101848484011115620001fb57620001fa620000c9565b5b6200020884828562000199565b509392505050565b600082601f830112620002285762000227620000c4565b5b81516200023a848260208601620001c5565b91505092915050565b6000819050919050565b620002588162000243565b81146200026457600080fd5b50565b60008151905062000278816200024d565b92915050565b6000806000606084860312156200029a5762000299620000ba565b5b600084015167ffffffffffffffff811115620002bb57620002ba620000bf565b5b620002c98682870162000210565b935050602084015167ffffffffffffffff811115620002ed57620002ec620000bf565b5b620002fb8682870162000210565b92505060406200030e8682870162000267565b9150509250925092565b600081519050919050565b7f4e487b7100000000000000000000000000000000000000000000000000000000600052602260045260246000fd5b600060028204905060018216806200036b57607f821691505b60208210810362000381576200038062000323565b5b50919050565b60008190508160005260206000209050919050565b60006020601f8301049050919050565b600082821b905092915050565b600060088302620003eb7fffffffffffffffffffffffffffffffffffffffffffffffffffffffffffffffff82620003ac565b620003f78683620003ac565b95508019841693508086168417925050509392505050565b6000819050919050565b60006200043a620004346200042e8462000243565b6200040f565b62000243565b9050919050565b6000819050919050565b620004568362000419565b6200046e620004658262000441565b848454620003b9565b825550505050565b600090565b6200048562000476565b620004928184846200044b565b505050565b5b81811015620004ba57620004ae6000826200047b565b60018101905062000498565b5050565b601f8211156200050957620004d38162000387565b620004de846200039c565b81016020851015620004ee578190505b62000506620004fd856200039c565b83018262000497565b50505b505050565b600082821c905092915050565b60006200052e600019846008026200050e565b1980831691505092915050565b60006200054983836200051b565b9150826002028217905092915050565b620005648262000318565b67ffffffffffffffff81111562000580576200057f620000df565b5b6200058c825462000352565b62000599828285620004be565b600060209050601f831160018114620005d15760008415620005bc578287015190505b620005c885826200053b565b86555062000638565b601f198416620005e18662000387565b60005b828110156200060b57848901518255600182019150602085019450602081019050620005e4565b868310156200062b578489015162000627601f8916826200051b565b8355505b6001600288020188555050505b505050505050565b61266080620006506000396000f3fe6080604052600436106101095760003560e01c80636352211e11610095578063a22cb46511610064578063a22cb4651461036b578063b88d4fde14610394578063c87b56dd146103bd578063d85d3d27146103fa578063e985e9c51461041657610109565b80636352211e1461029b57806370a08231146102d85780638da5cb5b1461031557806395d89b411461034057610109565b806313faede6116100dc57806313faede6146101dc57806318160ddd1461020757806323b872dd146102325780633ccfd60b1461025b57806342842e0e1461027257610109565b806301ffc9a71461010e57806306fdde031461014b578063081812fc14610176578063095ea7b3146101b3575b600080fd5b34801561011a57600080fd5b5061013560048036038101906101309190611a99565b610453565b6040516101429190611ae1565b60405180910390f35b34801561015757600080fd5b506101606104b4565b60405161016d9190611b8c565b60405180910390f35b34801561018257600080fd5b5061019d60048036038101906101989190611be4565b610546565b6040516101aa9190611c52565b60405180910390f35b3480156101bf57600080fd5b506101da60048036038101906101d59190611c99565b610562565b005b3480156101e857600080fd5b506101f1610578565b6040516101fe9190611ce8565b60405180910390f35b34801561021357600080fd5b5061021c61057e565b6040516102299190611ce8565b60405180910390f35b34801561023e57600080fd5b5061025960048036038101906102549190611d03565b610588565b005b34801561026757600080fd5b5061027061068a565b005b34801561027e57600080fd5b5061029960048036038101906102949190611d03565b61077f565b005b3480156102a757600080fd5b506102c260048036038101906102bd9190611be4565b61079f565b6040516102cf9190611c52565b60405180910390f35b3480156102e457600080fd5b506102ff60048036038101906102fa9190611d56565b6107b1565b60405161030c9190611ce8565b60405180910390f35b34801561032157600080fd5b5061032a61086b565b6040516103379190611c52565b60405180910390f35b34801561034c57600080fd5b50610355610891565b6040516103629190611b8c565b60405180910390f35b34801561037757600080fd5b50610392600480360381019061038d9190611daf565b610923565b005b3480156103a057600080fd5b506103bb60048036038101906103b69190611f24565b610939565b005b3480156103c957600080fd5b506103e460048036038101906103df9190611be4565b610956565b6040516103f19190611b8c565b60405180910390f35b610414600480360381019061040f9190612048565b610a69565b005b34801561042257600080fd5b5061043d60048036038101906104389190612091565b610ab1565b60405161044a9190611ae1565b60405180910390f35b6000634906490660e01b7bffffffffffffffffffffffffffffffffffffffffffffffffffffffff1916827bffffffffffffffffffffffffffffffffffffffffffffffffffffffff191614806104ad57506104ac82610b45565b5b9050919050565b6060600080546104c390612100565b80601f01602080910402602001604051908101604052809291908181526020018280546104ef90612100565b801561053c5780601f106105115761010080835404028352916020019161053c565b820191906000526020600020905b81548152906001019060200180831161051f57829003601f168201915b5050505050905090565b600061055182610c27565b5061055b82610caf565b9050919050565b610574828261056f610cec565b610cf4565b5050565b60095481565b6000600754905090565b600073ffffffffffffffffffffffffffffffffffffffff168273ffffffffffffffffffffffffffffffffffffffff16036105fa5760006040517f64a0ae920000000000000000000000000000000000000000000000000000000081526004016105f19190611c52565b60405180910390fd5b600061060e8383610609610cec565b610d06565b90508373ffffffffffffffffffffffffffffffffffffffff168173ffffffffffffffffffffffffffffffffffffffff1614610684578382826040517f64283d7b00000000000000000000000000000000000000000000000000000000815260040161067b93929190612131565b60405180910390fd5b50505050565b600860009054906101000a900473ffffffffffffffffffffffffffffffffffffffff1673ffffffffffffffffffffffffffffffffffffffff163373ffffffffffffffffffffffffffffffffffffffff16146106e457600080fd5b6000600860009054906101000a900473ffffffffffffffffffffffffffffffffffffffff1673ffffffffffffffffffffffffffffffffffffffff164760405161072c90612199565b60006040518083038185875af1925050503d8060008114610769576040519150601f19603f3d011682016040523d82523d6000602084013e61076e565b606091505b505090508061077c57600080fd5b50565b61079a83838360405180602001604052806000815250610939565b505050565b60006107aa82610c27565b9050919050565b60008073ffffffffffffffffffffffffffffffffffffffff168273ffffffffffffffffffffffffffffffffffffffff16036108245760006040517f89c62b6400000000000000000000000000000000000000000000000000000000815260040161081b9190611c52565b60405180910390fd5b600360008373ffffffffffffffffffffffffffffffffffffffff1673ffffffffffffffffffffffffffffffffffffffff168152602001908152602001600020549050919050565b600860009054906101000a900473ffffffffffffffffffffffffffffffffffffffff1681565b6060600180546108a090612100565b80601f01602080910402602001604051908101604052809291908181526020018280546108cc90612100565b80156109195780601f106108ee57610100808354040283529160200191610919565b820191906000526020600020905b8154815290600101906020018083116108fc57829003601f168201915b5050505050905090565b61093561092e610cec565b8383610f20565b5050565b610944848484610588565b6109508484848461108f565b50505050565b606061096182610c27565b50600060066000848152602001908152602001600020805461098290612100565b80601f01602080910402602001604051908101604052809291908181526020018280546109ae90612100565b80156109fb5780601f106109d0576101008083540402835291602001916109fb565b820191906000526020600020905b8154815290600101906020018083116109de57829003601f168201915b505050505090506000610a0c611246565b90506000815103610a21578192505050610a64565b600082511115610a56578082604051602001610a3e9291906121ea565b60405160208183030381529060405292505050610a64565b610a5f8461125d565b925050505b919050565b600954341015610a7857600080fd5b600160076000828254610a8b919061223d565b9250508190555060006007549050610aa333826112c6565b610aad81836113bf565b5050565b6000600560008473ffffffffffffffffffffffffffffffffffffffff1673ffffffffffffffffffffffffffffffffffffffff16815260200190815260200160002060008373ffffffffffffffffffffffffffffffffffffffff1673ffffffffffffffffffffffffffffffffffffffff16815260200190815260200160002060009054906101000a900460ff16905092915050565b60007f80ac58cd000000000000000000000000000000000000000000000000000000007bffffffffffffffffffffffffffffffffffffffffffffffffffffffff1916827bffffffffffffffffffffffffffffffffffffffffffffffffffffffff19161480610c1057507f5b5e139f000000000000000000000000000000000000000000000000000000007bffffffffffffffffffffffffffffffffffffffffffffffffffffffff1916827bffffffffffffffffffffffffffffffffffffffffffffffffffffffff1916145b80610c205750610c1f8261141b565b5b9050919050565b600080610c3383611485565b9050600073ffffffffffffffffffffffffffffffffffffffff168173ffffffffffffffffffffffffffffffffffffffff1603610ca657826040517f7e273289000000000000000000000000000000000000000000000000000000008152600401610c9d9190611ce8565b60405180910390fd5b80915050919050565b60006004600083815260200190815260200160002060009054906101000a900473ffffffffffffffffffffffffffffffffffffffff169050919050565b600033905090565b610d0183838360016114c2565b505050565b600080610d1284611485565b9050600073ffffffffffffffffffffffffffffffffffffffff168373ffffffffffffffffffffffffffffffffffffffff1614610d5457610d53818486611687565b5b600073ffffffffffffffffffffffffffffffffffffffff168173ffffffffffffffffffffffffffffffffffffffff1614610de557610d966000856000806114c2565b6001600360008373ffffffffffffffffffffffffffffffffffffffff1673ffffffffffffffffffffffffffffffffffffffff168152602001908152602001600020600082825403925050819055505b600073ffffffffffffffffffffffffffffffffffffffff168573ffffffffffffffffffffffffffffffffffffffff1614610e68576001600360008773ffffffffffffffffffffffffffffffffffffffff1673ffffffffffffffffffffffffffffffffffffffff168152602001908152602001600020600082825401925050819055505b846002600086815260200190815260200160002060006101000a81548173ffffffffffffffffffffffffffffffffffffffff021916908373ffffffffffffffffffffffffffffffffffffffff160217905550838573ffffffffffffffffffffffffffffffffffffffff168273ffffffffffffffffffffffffffffffffffffffff167fddf252ad1be2c89b69c2b068fc378daa952ba7f163c4a11628f55a4df523b3ef60405160405180910390a4809150509392505050565b600073ffffffffffffffffffffffffffffffffffffffff168273ffffffffffffffffffffffffffffffffffffffff1603610f9157816040517f5b08ba18000000000000000000000000000000000000000000000000000000008152600401610f889190611c52565b60405180910390fd5b80600560008573ffffffffffffffffffffffffffffffffffffffff1673ffffffffffffffffffffffffffffffffffffffff16815260200190815260200160002060008473ffffffffffffffffffffffffffffffffffffffff1673ffffffffffffffffffffffffffffffffffffffff16815260200190815260200160002060006101000a81548160ff0219169083151502179055508173ffffffffffffffffffffffffffffffffffffffff168373ffffffffffffffffffffffffffffffffffffffff167f17307eab39ab6107e8899845ad3d59bd9653f200f220920489ca2b5937696c31836040516110829190611ae1565b60405180910390a3505050565b60008373ffffffffffffffffffffffffffffffffffffffff163b1115611240578273ffffffffffffffffffffffffffffffffffffffff1663150b7a026110d3610cec565b8685856040518563ffffffff1660e01b81526004016110f594939291906122c6565b6020604051808303816000875af192505050801561113157506040513d601f19601f8201168201806040525081019061112e9190612327565b60015b6111b5573d8060008114611161576040519150601f19603f3d011682016040523d82523d6000602084013e611166565b606091505b5060008151036111ad57836040517f64a0ae920000000000000000000000000000000000000000000000000000000081526004016111a49190611c52565b60405180910390fd5b805181602001fd5b63150b7a0260e01b7bffffffffffffffffffffffffffffffffffffffffffffffffffffffff1916817bffffffffffffffffffffffffffffffffffffffffffffffffffffffff19161461123e57836040517f64a0ae920000000000000000000000000000000000000000000000000000000081526004016112359190611c52565b60405180910390fd5b505b50505050565b606060405180602001604052806000815250905090565b606061126882610c27565b506000611273611246565b9050600081511161129357604051806020016040528060008152506112be565b8061129d8461174b565b6040516020016112ae9291906121ea565b6040516020818303038152906040525b915050919050565b600073ffffffffffffffffffffffffffffffffffffffff168273ffffffffffffffffffffffffffffffffffffffff16036113385760006040517f64a0ae9200000000000000000000000000000000000000000000000000000000815260040161132f9190611c52565b60405180910390fd5b600061134683836000610d06565b9050600073ffffffffffffffffffffffffffffffffffffffff168173ffffffffffffffffffffffffffffffffffffffff16146113ba5760006040517f73c6ac6e0000000000000000000000000000000000000000000000000000000081526004016113b19190611c52565b60405180910390fd5b505050565b806006600084815260200190815260200160002090816113df9190612500565b507ff8e1a15aba9398e019f0b49df1a4fde98ee17ae345cb5f6b5e2c27f5033e8ce78260405161140f9190611ce8565b60405180910390a15050565b60007f01ffc9a7000000000000000000000000000000000000000000000000000000007bffffffffffffffffffffffffffffffffffffffffffffffffffffffff1916827bffffffffffffffffffffffffffffffffffffffffffffffffffffffff1916149050919050565b60006002600083815260200190815260200160002060009054906101000a900473ffffffffffffffffffffffffffffffffffffffff169050919050565b80806114fb5750600073ffffffffffffffffffffffffffffffffffffffff168273ffffffffffffffffffffffffffffffffffffffff1614155b1561162f57600061150b84610c27565b9050600073ffffffffffffffffffffffffffffffffffffffff168373ffffffffffffffffffffffffffffffffffffffff161415801561157657508273ffffffffffffffffffffffffffffffffffffffff168173ffffffffffffffffffffffffffffffffffffffff1614155b801561158957506115878184610ab1565b155b156115cb57826040517fa9fbf51f0000000000000000000000000000000000000000000000000000000081526004016115c29190611c52565b60405180910390fd5b811561162d57838573ffffffffffffffffffffffffffffffffffffffff168273ffffffffffffffffffffffffffffffffffffffff167f8c5be1e5ebec7d5bd14f71427d1e84f3dd0314c0f7b2291e5b200ac8c7c3b92560405160405180910390a45b505b836004600085815260200190815260200160002060006101000a81548173ffffffffffffffffffffffffffffffffffffffff021916908373ffffffffffffffffffffffffffffffffffffffff16021790555050505050565b611692838383611819565b61174657600073ffffffffffffffffffffffffffffffffffffffff168373ffffffffffffffffffffffffffffffffffffffff160361170757806040517f7e2732890000000000000000000000000000000000000000000000000000000081526004016116fe9190611ce8565b60405180910390fd5b81816040517f177e802f00000000000000000000000000000000000000000000000000000000815260040161173d9291906125d2565b60405180910390fd5b505050565b60606000600161175a846118da565b01905060008167ffffffffffffffff81111561177957611778611df9565b5b6040519080825280601f01601f1916602001820160405280156117ab5781602001600182028036833780820191505090505b509050600082602001820190505b60011561180e578080600190039150507f3031323334353637383961626364656600000000000000000000000000000000600a86061a8153600a8581611802576118016125fb565b5b049450600085036117b9575b819350505050919050565b60008073ffffffffffffffffffffffffffffffffffffffff168373ffffffffffffffffffffffffffffffffffffffff16141580156118d157508273ffffffffffffffffffffffffffffffffffffffff168473ffffffffffffffffffffffffffffffffffffffff16148061189257506118918484610ab1565b5b806118d057508273ffffffffffffffffffffffffffffffffffffffff166118b883610caf565b73ffffffffffffffffffffffffffffffffffffffff16145b5b90509392505050565b600080600090507a184f03e93ff9f4daa797ed6e38ed64bf6a1f0100000000000000008310611938577a184f03e93ff9f4daa797ed6e38ed64bf6a1f010000000000000000838161192e5761192d6125fb565b5b0492506040810190505b6d04ee2d6d415b85acef81000000008310611975576d04ee2d6d415b85acef8100000000838161196b5761196a6125fb565b5b0492506020810190505b662386f26fc1000083106119a457662386f26fc10000838161199a576119996125fb565b5b0492506010810190505b6305f5e10083106119cd576305f5e10083816119c3576119c26125fb565b5b0492506008810190505b61271083106119f25761271083816119e8576119e76125fb565b5b0492506004810190505b60648310611a155760648381611a0b57611a0a6125fb565b5b0492506002810190505b600a8310611a24576001810190505b80915050919050565b6000604051905090565b600080fd5b600080fd5b60007fffffffff0000000000000000000000000000000000000000000000000000000082169050919050565b611a7681611a41565b8114611a8157600080fd5b50565b600081359050611a9381611a6d565b92915050565b600060208284031215611aaf57611aae611a37565b5b6000611abd84828501611a84565b91505092915050565b60008115159050919050565b611adb81611ac6565b82525050565b6000602082019050611af66000830184611ad2565b92915050565b600081519050919050565b600082825260208201905092915050565b60005b83811015611b36578082015181840152602081019050611b1b565b60008484015250505050565b6000601f19601f8301169050919050565b6000611b5e82611afc565b611b688185611b07565b9350611b78818560208601611b18565b611b8181611b42565b840191505092915050565b60006020820190508181036000830152611ba68184611b53565b905092915050565b6000819050919050565b611bc181611bae565b8114611bcc57600080fd5b50565b600081359050611bde81611bb8565b92915050565b600060208284031215611bfa57611bf9611a37565b5b6000611c0884828501611bcf565b91505092915050565b600073ffffffffffffffffffffffffffffffffffffffff82169050919050565b6000611c3c82611c11565b9050919050565b611c4c81611c31565b82525050565b6000602082019050611c676000830184611c43565b92915050565b611c7681611c31565b8114611c8157600080fd5b50565b600081359050611c9381611c6d565b92915050565b60008060408385031215611cb057611caf611a37565b5b6000611cbe85828601611c84565b9250506020611ccf85828601611bcf565b9150509250929050565b611ce281611bae565b82525050565b6000602082019050611cfd6000830184611cd9565b92915050565b600080600060608486031215611d1c57611d1b611a37565b5b6000611d2a86828701611c84565b9350506020611d3b86828701611c84565b9250506040611d4c86828701611bcf565b9150509250925092565b600060208284031215611d6c57611d6b611a37565b5b6000611d7a84828501611c84565b91505092915050565b611d8c81611ac6565b8114611d9757600080fd5b50565b600081359050611da981611d83565b92915050565b60008060408385031215611dc657611dc5611a37565b5b6000611dd485828601611c84565b9250506020611de585828601611d9a565b9150509250929050565b600080fd5b600080fd5b7f4e487b7100000000000000000000000000000000000000000000000000000000600052604160045260246000fd5b611e3182611b42565b810181811067ffffffffffffffff82111715611e5057611e4f611df9565b5b80604052505050565b6000611e63611a2d565b9050611e6f8282611e28565b919050565b600067ffffffffffffffff821115611e8f57611e8e611df9565b5b611e9882611b42565b9050602081019050919050565b82818337600083830152505050565b6000611ec7611ec284611e74565b611e59565b905082815260208101848484011115611ee357611ee2611df4565b5b611eee848285611ea5565b509392505050565b600082601f830112611f0b57611f0a611def565b5b8135611f1b848260208601611eb4565b91505092915050565b60008060008060808587031215611f3e57611f3d611a37565b5b6000611f4c87828801611c84565b9450506020611f5d87828801611c84565b9350506040611f6e87828801611bcf565b925050606085013567ffffffffffffffff811115611f8f57611f8e611a3c565b5b611f9b87828801611ef6565b91505092959194509250565b600067ffffffffffffffff821115611fc257611fc1611df9565b5b611fcb82611b42565b9050602081019050919050565b6000611feb611fe684611fa7565b611e59565b90508281526020810184848401111561200757612006611df4565b5b612012848285611ea5565b509392505050565b600082601f83011261202f5761202e611def565b5b813561203f848260208601611fd8565b91505092915050565b60006020828403121561205e5761205d611a37565b5b600082013567ffffffffffffffff81111561207c5761207b611a3c565b5b6120888482850161201a565b91505092915050565b600080604083850312156120a8576120a7611a37565b5b60006120b685828601611c84565b92505060206120c785828601611c84565b9150509250929050565b7f4e487b7100000000000000000000000000000000000000000000000000000000600052602260045260246000fd5b6000600282049050600182168061211857607f821691505b60208210810361212b5761212a6120d1565b5b50919050565b60006060820190506121466000830186611c43565b6121536020830185611cd9565b6121606040830184611c43565b949350505050565b600081905092915050565b50565b6000612183600083612168565b915061218e82612173565b600082019050919050565b60006121a482612176565b9150819050919050565b600081905092915050565b60006121c482611afc565b6121ce81856121ae565b93506121de818560208601611b18565b80840191505092915050565b60006121f682856121b9565b915061220282846121b9565b91508190509392505050565b7f4e487b7100000000000000000000000000000000000000000000000000000000600052601160045260246000fd5b600061224882611bae565b915061225383611bae565b925082820190508082111561226b5761226a61220e565b5b92915050565b600081519050919050565b600082825260208201905092915050565b600061229882612271565b6122a2818561227c565b93506122b2818560208601611b18565b6122bb81611b42565b840191505092915050565b60006080820190506122db6000830187611c43565b6122e86020830186611c43565b6122f56040830185611cd9565b8181036060830152612307818461228d565b905095945050505050565b60008151905061232181611a6d565b92915050565b60006020828403121561233d5761233c611a37565b5b600061234b84828501612312565b91505092915050565b60008190508160005260206000209050919050565b60006020601f8301049050919050565b600082821b905092915050565b6000600883026123b67fffffffffffffffffffffffffffffffffffffffffffffffffffffffffffffffff82612379565b6123c08683612379565b95508019841693508086168417925050509392505050565b6000819050919050565b60006123fd6123f86123f384611bae565b6123d8565b611bae565b9050919050565b6000819050919050565b612417836123e2565b61242b61242382612404565b848454612386565b825550505050565b600090565b612440612433565b61244b81848461240e565b505050565b5b8181101561246f57612464600082612438565b600181019050612451565b5050565b601f8211156124b45761248581612354565b61248e84612369565b8101602085101561249d578190505b6124b16124a985612369565b830182612450565b50505b505050565b600082821c905092915050565b60006124d7600019846008026124b9565b1980831691505092915050565b60006124f083836124c6565b9150826002028217905092915050565b61250982611afc565b67ffffffffffffffff81111561252257612521611df9565b5b61252c8254612100565b612537828285612473565b600060209050601f83116001811461256a5760008415612558578287015190505b61256285826124e4565b8655506125ca565b601f19841661257886612354565b60005b828110156125a05784890151825560018201915060208501945060208101905061257b565b868310156125bd57848901516125b9601f8916826124c6565b8355505b6001600288020188555050505b505050505050565b60006040820190506125e76000830185611c43565b6125f46020830184611cd9565b9392505050565b7f4e487b7100000000000000000000000000000000000000000000000000000000600052601260045260246000fdfea264697066735822122029e5900d05631e0e9171af25964b1f8837f00a6f098db192c343ffe85793561e64736f6c63430008180033",
  "linkReferences": {},
  "deployedLinkReferences": {}
}